{
  "contractName": "Tasks",
  "abi": [
    {
      "inputs": [],
      "name": "getTasks",
      "outputs": [
        {
          "internalType": "string[]",
          "name": "",
          "type": "string[]"
        }
      ],
      "stateMutability": "view",
      "type": "function",
      "constant": true
    },
    {
      "inputs": [
        {
          "internalType": "string",
          "name": "_task",
          "type": "string"
        }
      ],
      "name": "setTasks",
      "outputs": [],
      "stateMutability": "nonpayable",
      "type": "function"
    }
  ],
  "bytecode": "0x608060405234801561001057600080fd5b506107aa806100206000396000f3fe608060405234801561001057600080fd5b50600436106100365760003560e01c806304a87e381461003b5780638fd86e2f14610059575b600080fd5b610043610075565b60405161005091906102d8565b60405180910390f35b610073600480360381019061006e9190610443565b61014e565b005b60606000805480602002602001604051908101604052809291908181526020016000905b828210156101455783829060005260206000200180546100b8906104bb565b80601f01602080910402602001604051908101604052809291908181526020018280546100e4906104bb565b80156101315780601f1061010657610100808354040283529160200191610131565b820191906000526020600020905b81548152906001019060200180831161011457829003601f168201915b505050505081526020019060010190610099565b50505050905090565b60008190806001815401808255809150506001900390600052602060002001600090919091909150908161018291906106a2565b5050565b600081519050919050565b600082825260208201905092915050565b6000819050602082019050919050565b600081519050919050565b600082825260208201905092915050565b60005b838110156101ec5780820151818401526020810190506101d1565b60008484015250505050565b6000601f19601f8301169050919050565b6000610214826101b2565b61021e81856101bd565b935061022e8185602086016101ce565b610237816101f8565b840191505092915050565b600061024e8383610209565b905092915050565b6000602082019050919050565b600061026e82610186565b6102788185610191565b93508360208202850161028a856101a2565b8060005b858110156102c657848403895281516102a78582610242565b94506102b283610256565b925060208a0199505060018101905061028e565b50829750879550505050505092915050565b600060208201905081810360008301526102f28184610263565b905092915050565b6000604051905090565b600080fd5b600080fd5b600080fd5b600080fd5b7f4e487b7100000000000000000000000000000000000000000000000000000000600052604160045260246000fd5b610350826101f8565b810181811067ffffffffffffffff8211171561036f5761036e610318565b5b80604052505050565b60006103826102fa565b905061038e8282610347565b919050565b600067ffffffffffffffff8211156103ae576103ad610318565b5b6103b7826101f8565b9050602081019050919050565b82818337600083830152505050565b60006103e66103e184610393565b610378565b90508281526020810184848401111561040257610401610313565b5b61040d8482856103c4565b509392505050565b600082601f83011261042a5761042961030e565b5b813561043a8482602086016103d3565b91505092915050565b60006020828403121561045957610458610304565b5b600082013567ffffffffffffffff81111561047757610476610309565b5b61048384828501610415565b91505092915050565b7f4e487b7100000000000000000000000000000000000000000000000000000000600052602260045260246000fd5b600060028204905060018216806104d357607f821691505b6020821081036104e6576104e561048c565b5b50919050565b60008190508160005260206000209050919050565b60006020601f8301049050919050565b600082821b905092915050565b60006008830261054e7fffffffffffffffffffffffffffffffffffffffffffffffffffffffffffffffff82610511565b6105588683610511565b95508019841693508086168417925050509392505050565b6000819050919050565b6000819050919050565b600061059f61059a61059584610570565b61057a565b610570565b9050919050565b6000819050919050565b6105b983610584565b6105cd6105c5826105a6565b84845461051e565b825550505050565b600090565b6105e26105d5565b6105ed8184846105b0565b505050565b5b81811015610611576106066000826105da565b6001810190506105f3565b5050565b601f82111561065657610627816104ec565b61063084610501565b8101602085101561063f578190505b61065361064b85610501565b8301826105f2565b50505b505050565b600082821c905092915050565b60006106796000198460080261065b565b1980831691505092915050565b60006106928383610668565b9150826002028217905092915050565b6106ab826101b2565b67ffffffffffffffff8111156106c4576106c3610318565b5b6106ce82546104bb565b6106d9828285610615565b600060209050601f83116001811461070c57600084156106fa578287015190505b6107048582610686565b86555061076c565b601f19841661071a866104ec565b60005b828110156107425784890151825560018201915060208501945060208101905061071d565b8683101561075f578489015161075b601f891682610668565b8355505b6001600288020188555050505b50505050505056fea26469706673582212209df6cbff185e876093bf82ca91d0120be502ed905021d74291d953823d75f55c64736f6c63430008110033",
  "immutableReferences": {},
  "source": "// SPDX-License-Identifier: UNLICENSED\npragma solidity ^0.8.0;\npragma experimental ABIEncoderV2;\n\ncontract Tasks {\n    string[] todos;\n    string tasks;\n    function getTasks() public view returns (string[] memory) {\n        return (todos);\n    }\n\n    function setTasks(string memory _task) public {\n        todos.push(_task);\n    }\n}\n",
  "sourcePath": "/home/binsar/Workspace/NEUVERSITY/web3/belajarweb3/contracts/Tasks.sol",
  "compiler": {
    "name": "solc",
    "version": "0.8.17+commit.8df45f5f.Emscripten.clang"
  },
  "schemaVersion": "3.4.10",
  "updatedAt": "2022-11-01T13:39:31.887Z",
  "networkType": "ethereum",
  "devdoc": {
    "kind": "dev",
    "methods": {},
    "version": 1
  },
  "userdoc": {
    "kind": "user",
    "methods": {},
    "version": 1
  }
}